{
  "contractName": "ProductTracking",
  "abi": [
    {
      "anonymous": false,
      "inputs": [
        {
          "indexed": false,
          "internalType": "string",
          "name": "productCode",
          "type": "string"
        },
        {
          "indexed": false,
          "internalType": "uint256",
          "name": "arrivalDate",
          "type": "uint256"
        }
      ],
      "name": "ArrivalInfoUpdated",
      "type": "event"
    },
    {
      "anonymous": false,
      "inputs": [
        {
          "indexed": false,
          "internalType": "string",
          "name": "productCode",
          "type": "string"
        },
        {
          "indexed": false,
          "internalType": "string",
          "name": "name",
          "type": "string"
        },
        {
          "indexed": false,
          "internalType": "string",
          "name": "details",
          "type": "string"
        },
        {
          "indexed": false,
          "internalType": "uint256",
          "name": "productionDate",
          "type": "uint256"
        }
      ],
      "name": "ProductAdded",
      "type": "event"
    },
    {
      "anonymous": false,
      "inputs": [
        {
          "indexed": false,
          "internalType": "string",
          "name": "productCode",
          "type": "string"
        },
        {
          "indexed": false,
          "internalType": "uint256",
          "name": "transportTime",
          "type": "uint256"
        },
        {
          "indexed": false,
          "internalType": "uint256",
          "name": "temperature",
          "type": "uint256"
        }
      ],
      "name": "TransportInfoUpdated",
      "type": "event"
    },
    {
      "inputs": [
        {
          "internalType": "string",
          "name": "",
          "type": "string"
        },
        {
          "internalType": "uint256",
          "name": "",
          "type": "uint256"
        }
      ],
      "name": "productUpdates",
      "outputs": [
        {
          "internalType": "address",
          "name": "updater",
          "type": "address"
        },
        {
          "internalType": "uint256",
          "name": "timestamp",
          "type": "uint256"
        },
        {
          "internalType": "string",
          "name": "updateType",
          "type": "string"
        },
        {
          "internalType": "string",
          "name": "details",
          "type": "string"
        }
      ],
      "stateMutability": "view",
      "type": "function",
      "constant": true
    },
    {
      "inputs": [
        {
          "internalType": "string",
          "name": "",
          "type": "string"
        }
      ],
      "name": "products",
      "outputs": [
        {
          "internalType": "string",
          "name": "name",
          "type": "string"
        },
        {
          "internalType": "string",
          "name": "details",
          "type": "string"
        },
        {
          "internalType": "uint256",
          "name": "productionDate",
          "type": "uint256"
        },
        {
          "internalType": "uint256",
          "name": "arrivalDate",
          "type": "uint256"
        },
        {
          "internalType": "uint256",
          "name": "transportTime",
          "type": "uint256"
        },
        {
          "internalType": "uint256",
          "name": "temperature",
          "type": "uint256"
        },
        {
          "internalType": "address",
          "name": "owner",
          "type": "address"
        }
      ],
      "stateMutability": "view",
      "type": "function",
      "constant": true
    },
    {
      "inputs": [
        {
          "internalType": "string",
          "name": "_productCode",
          "type": "string"
        },
        {
          "internalType": "string",
          "name": "_name",
          "type": "string"
        },
        {
          "internalType": "string",
          "name": "_details",
          "type": "string"
        },
        {
          "internalType": "uint256",
          "name": "_productionDate",
          "type": "uint256"
        }
      ],
      "name": "addProduct",
      "outputs": [],
      "stateMutability": "nonpayable",
      "type": "function"
    },
    {
      "inputs": [
        {
          "internalType": "string",
          "name": "_productCode",
          "type": "string"
        },
        {
          "internalType": "uint256",
          "name": "_transportTime",
          "type": "uint256"
        },
        {
          "internalType": "uint256",
          "name": "_temperature",
          "type": "uint256"
        }
      ],
      "name": "updateTransportInfo",
      "outputs": [],
      "stateMutability": "nonpayable",
      "type": "function"
    },
    {
      "inputs": [
        {
          "internalType": "string",
          "name": "_productCode",
          "type": "string"
        },
        {
          "internalType": "uint256",
          "name": "_arrivalDate",
          "type": "uint256"
        }
      ],
      "name": "updateArrivalInfo",
      "outputs": [],
      "stateMutability": "nonpayable",
      "type": "function"
    },
    {
      "inputs": [
        {
          "internalType": "string",
          "name": "_productCode",
          "type": "string"
        }
      ],
      "name": "getProductInfo",
      "outputs": [
        {
          "internalType": "string",
          "name": "name",
          "type": "string"
        },
        {
          "internalType": "string",
          "name": "details",
          "type": "string"
        },
        {
          "internalType": "uint256",
          "name": "productionDate",
          "type": "uint256"
        },
        {
          "internalType": "uint256",
          "name": "arrivalDate",
          "type": "uint256"
        },
        {
          "internalType": "uint256",
          "name": "transportTime",
          "type": "uint256"
        },
        {
          "internalType": "uint256",
          "name": "temperature",
          "type": "uint256"
        }
      ],
      "stateMutability": "view",
      "type": "function",
      "constant": true
    },
    {
      "inputs": [
        {
          "internalType": "string",
          "name": "_productCode",
          "type": "string"
        }
      ],
      "name": "getProductUpdates",
      "outputs": [
        {
          "components": [
            {
              "internalType": "address",
              "name": "updater",
              "type": "address"
            },
            {
              "internalType": "uint256",
              "name": "timestamp",
              "type": "uint256"
            },
            {
              "internalType": "string",
              "name": "updateType",
              "type": "string"
            },
            {
              "internalType": "string",
              "name": "details",
              "type": "string"
            }
          ],
          "internalType": "struct ProductTracking.UpdateInfo[]",
          "name": "",
          "type": "tuple[]"
        }
      ],
      "stateMutability": "view",
      "type": "function",
      "constant": true
    }
  ],
  "bytecode": "0x608060405234801561001057600080fd5b506119fa806100206000396000f3fe608060405234801561001057600080fd5b506004361061007d5760003560e01c806357ba11b01161005b57806357ba11b01461010757806378ee155a1461013c5780638165fed514610158578063c6c12b83146101745761007d565b80630186a423146100825780631ad5cbec146100b85780634dd5fb94146100d4575b600080fd5b61009c600480360381019061009791906111a3565b6101a4565b6040516100af97969594939291906116b1565b60405180910390f35b6100d260048036038101906100cd91906112e3565b61032c565b005b6100ee60048036038101906100e9919061128f565b6105a7565b6040516100fe9493929190611573565b60405180910390f35b610121600480360381019061011c91906111a3565b61073a565b60405161013396959493929190611642565b60405180910390f35b6101566004803603810190610151919061128f565b610945565b005b610172600480360381019061016d91906111e4565b610bb4565b005b61018e600480360381019061018991906111a3565b610e82565b60405161019b91906115c6565b60405180910390f35b6000818051602081018201805184825260208301602085012081835280955050505050506000915090508060000180546101dd9061190c565b80601f01602080910402602001604051908101604052809291908181526020018280546102099061190c565b80156102565780601f1061022b57610100808354040283529160200191610256565b820191906000526020600020905b81548152906001019060200180831161023957829003601f168201915b50505050509080600101805461026b9061190c565b80601f01602080910402602001604051908101604052809291908181526020018280546102979061190c565b80156102e45780601f106102b9576101008083540402835291602001916102e4565b820191906000526020600020905b8154815290600101906020018083116102c757829003601f168201915b5050505050908060020154908060030154908060040154908060050154908060060160009054906101000a900473ffffffffffffffffffffffffffffffffffffffff16905087565b6000808460405161033d919061155c565b908152602001604051809103902090503373ffffffffffffffffffffffffffffffffffffffff168160060160009054906101000a900473ffffffffffffffffffffffffffffffffffffffff1673ffffffffffffffffffffffffffffffffffffffff16146103df576040517f08c379a00000000000000000000000000000000000000000000000000000000081526004016103d69061179c565b60405180910390fd5b828160040181905550818160050181905550600184604051610401919061155c565b908152602001604051809103902060405180608001604052803373ffffffffffffffffffffffffffffffffffffffff1681526020014281526020016040518060400160405280601081526020017f557064617465205472616e73706f72740000000000000000000000000000000081525081526020016040518060400160405280601681526020017f5472616e73706f727420696e666f207570646174656400000000000000000000815250815250908060018154018082558091505060019003906000526020600020906004020160009091909190915060008201518160000160006101000a81548173ffffffffffffffffffffffffffffffffffffffff021916908373ffffffffffffffffffffffffffffffffffffffff160217905550602082015181600101556040820151816002019080519060200190610546929190611083565b506060820151816003019080519060200190610563929190611083565b5050507f75b5c84a85194bd4d5fe489fb9e3d954c0e8019b03c5d9bfa88644933b073f508484846040516105999392919061175e565b60405180910390a150505050565b60018280516020810182018051848252602083016020850120818352809550505050505081815481106105d957600080fd5b9060005260206000209060040201600091509150508060000160009054906101000a900473ffffffffffffffffffffffffffffffffffffffff16908060010154908060020180546106299061190c565b80601f01602080910402602001604051908101604052809291908181526020018280546106559061190c565b80156106a25780601f10610677576101008083540402835291602001916106a2565b820191906000526020600020905b81548152906001019060200180831161068557829003601f168201915b5050505050908060030180546106b79061190c565b80601f01602080910402602001604051908101604052809291908181526020018280546106e39061190c565b80156107305780601f1061070557610100808354040283529160200191610730565b820191906000526020600020905b81548152906001019060200180831161071357829003601f168201915b5050505050905084565b60608060008060008060008088604051610754919061155c565b90815260200160405180910390206040518060e001604052908160008201805461077d9061190c565b80601f01602080910402602001604051908101604052809291908181526020018280546107a99061190c565b80156107f65780601f106107cb576101008083540402835291602001916107f6565b820191906000526020600020905b8154815290600101906020018083116107d957829003601f168201915b5050505050815260200160018201805461080f9061190c565b80601f016020809104026020016040519081016040528092919081815260200182805461083b9061190c565b80156108885780601f1061085d57610100808354040283529160200191610888565b820191906000526020600020905b81548152906001019060200180831161086b57829003601f168201915b50505050508152602001600282015481526020016003820154815260200160048201548152602001600582015481526020016006820160009054906101000a900473ffffffffffffffffffffffffffffffffffffffff1673ffffffffffffffffffffffffffffffffffffffff1673ffffffffffffffffffffffffffffffffffffffff16815250509050806000015181602001518260400151836060015184608001518560a001519650965096509650965096505091939550919395565b60008083604051610956919061155c565b908152602001604051809103902090503373ffffffffffffffffffffffffffffffffffffffff168160060160009054906101000a900473ffffffffffffffffffffffffffffffffffffffff1673ffffffffffffffffffffffffffffffffffffffff16146109f8576040517f08c379a00000000000000000000000000000000000000000000000000000000081526004016109ef9061179c565b60405180910390fd5b818160030181905550600183604051610a11919061155c565b908152602001604051809103902060405180608001604052803373ffffffffffffffffffffffffffffffffffffffff1681526020014281526020016040518060400160405280600e81526020017f557064617465204172726976616c00000000000000000000000000000000000081525081526020016040518060400160405280601481526020017f4172726976616c20696e666f2075706461746564000000000000000000000000815250815250908060018154018082558091505060019003906000526020600020906004020160009091909190915060008201518160000160006101000a81548173ffffffffffffffffffffffffffffffffffffffff021916908373ffffffffffffffffffffffffffffffffffffffff160217905550602082015181600101556040820151816002019080519060200190610b56929190611083565b506060820151816003019080519060200190610b73929190611083565b5050507f8b97a564eb7e57c5f2bb561b7115f443618a87ed48bd47403fa7451727b9b92d8383604051610ba792919061172e565b60405180910390a1505050565b6040518060e001604052808481526020018381526020018281526020016000815260200160008152602001600081526020013373ffffffffffffffffffffffffffffffffffffffff16815250600085604051610c10919061155c565b90815260200160405180910390206000820151816000019080519060200190610c3a929190611083565b506020820151816001019080519060200190610c57929190611083565b5060408201518160020155606082015181600301556080820151816004015560a0820151816005015560c08201518160060160006101000a81548173ffffffffffffffffffffffffffffffffffffffff021916908373ffffffffffffffffffffffffffffffffffffffff160217905550905050600184604051610cda919061155c565b908152602001604051809103902060405180608001604052803373ffffffffffffffffffffffffffffffffffffffff1681526020014281526020016040518060400160405280600b81526020017f4164642050726f6475637400000000000000000000000000000000000000000081525081526020016040518060400160405280600d81526020017f50726f6475637420616464656400000000000000000000000000000000000000815250815250908060018154018082558091505060019003906000526020600020906004020160009091909190915060008201518160000160006101000a81548173ffffffffffffffffffffffffffffffffffffffff021916908373ffffffffffffffffffffffffffffffffffffffff160217905550602082015181600101556040820151816002019080519060200190610e1f929190611083565b506060820151816003019080519060200190610e3c929190611083565b5050507f225da28c3fbf5026f4190247be9cfb3606c5ab12c4c486131b1f936bc6da46cf84848484604051610e7494939291906115e8565b60405180910390a150505050565b6060600182604051610e94919061155c565b9081526020016040518091039020805480602002602001604051908101604052809291908181526020016000905b8282101561107857838290600052602060002090600402016040518060800160405290816000820160009054906101000a900473ffffffffffffffffffffffffffffffffffffffff1673ffffffffffffffffffffffffffffffffffffffff1673ffffffffffffffffffffffffffffffffffffffff16815260200160018201548152602001600282018054610f559061190c565b80601f0160208091040260200160405190810160405280929190818152602001828054610f819061190c565b8015610fce5780601f10610fa357610100808354040283529160200191610fce565b820191906000526020600020905b815481529060010190602001808311610fb157829003601f168201915b50505050508152602001600382018054610fe79061190c565b80601f01602080910402602001604051908101604052809291908181526020018280546110139061190c565b80156110605780601f1061103557610100808354040283529160200191611060565b820191906000526020600020905b81548152906001019060200180831161104357829003601f168201915b50505050508152505081526020019060010190610ec2565b505050509050919050565b82805461108f9061190c565b90600052602060002090601f0160209004810192826110b157600085556110f8565b82601f106110ca57805160ff19168380011785556110f8565b828001600101855582156110f8579182015b828111156110f75782518255916020019190600101906110dc565b5b5090506111059190611109565b5090565b5b8082111561112257600081600090555060010161110a565b5090565b6000611139611134846117ed565b6117bc565b90508281526020810184848401111561115157600080fd5b61115c8482856118ca565b509392505050565b600082601f83011261117557600080fd5b8135611185848260208601611126565b91505092915050565b60008135905061119d816119ad565b92915050565b6000602082840312156111b557600080fd5b600082013567ffffffffffffffff8111156111cf57600080fd5b6111db84828501611164565b91505092915050565b600080600080608085870312156111fa57600080fd5b600085013567ffffffffffffffff81111561121457600080fd5b61122087828801611164565b945050602085013567ffffffffffffffff81111561123d57600080fd5b61124987828801611164565b935050604085013567ffffffffffffffff81111561126657600080fd5b61127287828801611164565b92505060606112838782880161118e565b91505092959194509250565b600080604083850312156112a257600080fd5b600083013567ffffffffffffffff8111156112bc57600080fd5b6112c885828601611164565b92505060206112d98582860161118e565b9150509250929050565b6000806000606084860312156112f857600080fd5b600084013567ffffffffffffffff81111561131257600080fd5b61131e86828701611164565b935050602061132f8682870161118e565b92505060406113408682870161118e565b9150509250925092565b600061135683836114d4565b905092915050565b6113678161188e565b82525050565b6113768161188e565b82525050565b60006113878261182d565b6113918185611850565b9350836020820285016113a38561181d565b8060005b858110156113df57848403895281516113c0858261134a565b94506113cb83611843565b925060208a019950506001810190506113a7565b50829750879550505050505092915050565b60006113fc82611838565b6114068185611861565b93506114168185602086016118d9565b61141f8161199c565b840191505092915050565b600061143582611838565b61143f8185611872565b935061144f8185602086016118d9565b6114588161199c565b840191505092915050565b600061146e82611838565b6114788185611883565b93506114888185602086016118d9565b80840191505092915050565b60006114a1600e83611872565b91507f4e6f7420617574686f72697a65640000000000000000000000000000000000006000830152602082019050919050565b60006080830160008301516114ec600086018261135e565b5060208301516114ff602086018261153e565b506040830151848203604086015261151782826113f1565b9150506060830151848203606086015261153182826113f1565b9150508091505092915050565b611547816118c0565b82525050565b611556816118c0565b82525050565b60006115688284611463565b915081905092915050565b6000608082019050611588600083018761136d565b611595602083018661154d565b81810360408301526115a7818561142a565b905081810360608301526115bb818461142a565b905095945050505050565b600060208201905081810360008301526115e0818461137c565b905092915050565b60006080820190508181036000830152611602818761142a565b90508181036020830152611616818661142a565b9050818103604083015261162a818561142a565b9050611639606083018461154d565b95945050505050565b600060c082019050818103600083015261165c818961142a565b90508181036020830152611670818861142a565b905061167f604083018761154d565b61168c606083018661154d565b611699608083018561154d565b6116a660a083018461154d565b979650505050505050565b600060e08201905081810360008301526116cb818a61142a565b905081810360208301526116df818961142a565b90506116ee604083018861154d565b6116fb606083018761154d565b611708608083018661154d565b61171560a083018561154d565b61172260c083018461136d565b98975050505050505050565b60006040820190508181036000830152611748818561142a565b9050611757602083018461154d565b9392505050565b60006060820190508181036000830152611778818661142a565b9050611787602083018561154d565b611794604083018461154d565b949350505050565b600060208201905081810360008301526117b581611494565b9050919050565b6000604051905081810181811067ffffffffffffffff821117156117e3576117e261196d565b5b8060405250919050565b600067ffffffffffffffff8211156118085761180761196d565b5b601f19601f8301169050602081019050919050565b6000819050602082019050919050565b600081519050919050565b600081519050919050565b6000602082019050919050565b600082825260208201905092915050565b600082825260208201905092915050565b600082825260208201905092915050565b600081905092915050565b6000611899826118a0565b9050919050565b600073ffffffffffffffffffffffffffffffffffffffff82169050919050565b6000819050919050565b82818337600083830152505050565b60005b838110156118f75780820151818401526020810190506118dc565b83811115611906576000848401525b50505050565b6000600282049050600182168061192457607f821691505b602082108114156119385761193761193e565b5b50919050565b7f4e487b7100000000000000000000000000000000000000000000000000000000600052602260045260246000fd5b7f4e487b7100000000000000000000000000000000000000000000000000000000600052604160045260246000fd5b6000601f19601f8301169050919050565b6119b6816118c0565b81146119c157600080fd5b5056fea26469706673582212204444819264a868a78d42b461ddc17f0558faf9c4be9c2c1a6f1f5338318b5fc164736f6c63430008000033",
  "immutableReferences": {},
  "source": "// SPDX-License-Identifier: GPL-3.0-or-later\r\npragma solidity ^0.8.0;\r\n\r\n//declares a new contract\r\ncontract ProductTracking {\r\n\r\n    //product struct for storage product\r\n    struct Product {\r\n        string name;\r\n        string details;\r\n        uint256 productionDate;\r\n        uint256 arrivalDate;\r\n        uint256 transportTime;\r\n        uint256 temperature;\r\n        address owner;\r\n    }\r\n\r\n    //update history info show on view data page\r\n    struct UpdateInfo {\r\n        address updater;\r\n        uint256 timestamp;\r\n        string updateType;\r\n        string details;\r\n    }\r\n\r\n    //link to storage define sting(_productcode) as key \r\n    mapping(string => Product) public products;\r\n    mapping(string => UpdateInfo[]) public productUpdates;\r\n\r\n    //define significant actions\r\n    event ProductAdded(string productCode, string name, string details, uint256 productionDate);\r\n    event TransportInfoUpdated(string productCode, uint256 transportTime, uint256 temperature);\r\n    event ArrivalInfoUpdated(string productCode, uint256 arrivalDate);\r\n\r\n    function addProduct(\r\n        string memory _productCode,\r\n        string memory _name,\r\n        string memory _details,\r\n        uint256 _productionDate\r\n    ) public {\r\n        products[_productCode] = Product({\r\n            name: _name,\r\n            details: _details,\r\n            productionDate: _productionDate,\r\n            arrivalDate: 0,\r\n            transportTime: 0,\r\n            temperature: 0,\r\n            owner: msg.sender\r\n        });\r\n\r\n        productUpdates[_productCode].push(UpdateInfo({\r\n            updater: msg.sender,\r\n            timestamp: block.timestamp,\r\n            updateType: \"Add Product\",\r\n            details: \"Product added\"\r\n        }));\r\n\r\n        // important actions for exteanl react when use\r\n        emit ProductAdded(_productCode, _name, _details, _productionDate);\r\n    }\r\n\r\n    function updateTransportInfo(\r\n        string memory _productCode,\r\n        uint256 _transportTime,\r\n        uint256 _temperature\r\n    ) public {\r\n        Product storage product = products[_productCode];\r\n        require(product.owner == msg.sender, \"Not authorized\");\r\n        product.transportTime = _transportTime;\r\n        product.temperature = _temperature;\r\n\r\n        productUpdates[_productCode].push(UpdateInfo({\r\n            updater: msg.sender,\r\n            timestamp: block.timestamp,\r\n            updateType: \"Update Transport\",\r\n            details: \"Transport info updated\"\r\n        }));\r\n\r\n        emit TransportInfoUpdated(_productCode, _transportTime, _temperature);\r\n    }\r\n\r\n    function updateArrivalInfo(\r\n        string memory _productCode,\r\n        uint256 _arrivalDate\r\n    ) public {\r\n        Product storage product = products[_productCode];\r\n        require(product.owner == msg.sender, \"Not authorized\");\r\n        product.arrivalDate = _arrivalDate;\r\n\r\n        productUpdates[_productCode].push(UpdateInfo({\r\n            updater: msg.sender,\r\n            timestamp: block.timestamp,\r\n            updateType: \"Update Arrival\",\r\n            details: \"Arrival info updated\"\r\n        }));\r\n\r\n        emit ArrivalInfoUpdated(_productCode, _arrivalDate);\r\n    }\r\n\r\n    function getProductInfo(string memory _productCode) public view returns (\r\n        string memory name,\r\n        string memory details,\r\n        uint256 productionDate,\r\n        uint256 arrivalDate,\r\n        uint256 transportTime,\r\n        uint256 temperature\r\n    ) {\r\n        Product memory product = products[_productCode];\r\n        return (\r\n            product.name,\r\n            product.details,\r\n            product.productionDate,\r\n            product.arrivalDate,\r\n            product.transportTime,\r\n            product.temperature\r\n        );\r\n    }\r\n\r\n    function getProductUpdates(string memory _productCode) public view returns (UpdateInfo[] memory) {\r\n        return productUpdates[_productCode];\r\n    }\r\n}\r\n",
  "sourcePath": "C:\\Users\\MARKpoint\\OneDrive\\Documents\\productTracking\\contracts\\ProductTracking.sol",
  "compiler": {
    "name": "solc",
    "version": "0.8.0+commit.c7dfd78e.Emscripten.clang"
  },
  "schemaVersion": "3.4.16",
  "updatedAt": "2024-07-30T04:10:44.839Z",
  "networkType": "ethereum",
  "devdoc": {
    "kind": "dev",
    "methods": {},
    "version": 1
  },
  "userdoc": {
    "kind": "user",
    "methods": {},
    "version": 1
  }
}